{
    "_format": "hh-sol-artifact-1",
    "contractName": "Domains",
    "sourceName": "contracts/Domains.sol",
    "abi": [
        {
            "inputs": [
                {
                    "internalType": "string",
                    "name": "_tld",
                    "type": "string"
                }
            ],
            "stateMutability": "payable",
            "type": "constructor"
        },
        {
            "anonymous": false,
            "inputs": [
                {
                    "indexed": true,
                    "internalType": "address",
                    "name": "owner",
                    "type": "address"
                },
                {
                    "indexed": true,
                    "internalType": "address",
                    "name": "approved",
                    "type": "address"
                },
                {
                    "indexed": true,
                    "internalType": "uint256",
                    "name": "tokenId",
                    "type": "uint256"
                }
            ],
            "name": "Approval",
            "type": "event"
        },
        {
            "anonymous": false,
            "inputs": [
                {
                    "indexed": true,
                    "internalType": "address",
                    "name": "owner",
                    "type": "address"
                },
                {
                    "indexed": true,
                    "internalType": "address",
                    "name": "operator",
                    "type": "address"
                },
                {
                    "indexed": false,
                    "internalType": "bool",
                    "name": "approved",
                    "type": "bool"
                }
            ],
            "name": "ApprovalForAll",
            "type": "event"
        },
        {
            "anonymous": false,
            "inputs": [
                {
                    "indexed": true,
                    "internalType": "address",
                    "name": "from",
                    "type": "address"
                },
                {
                    "indexed": true,
                    "internalType": "address",
                    "name": "to",
                    "type": "address"
                },
                {
                    "indexed": true,
                    "internalType": "uint256",
                    "name": "tokenId",
                    "type": "uint256"
                }
            ],
            "name": "Transfer",
            "type": "event"
        },
        {
            "inputs": [
                {
                    "internalType": "address",
                    "name": "to",
                    "type": "address"
                },
                {
                    "internalType": "uint256",
                    "name": "tokenId",
                    "type": "uint256"
                }
            ],
            "name": "approve",
            "outputs": [],
            "stateMutability": "nonpayable",
            "type": "function"
        },
        {
            "inputs": [
                {
                    "internalType": "address",
                    "name": "owner",
                    "type": "address"
                }
            ],
            "name": "balanceOf",
            "outputs": [
                {
                    "internalType": "uint256",
                    "name": "",
                    "type": "uint256"
                }
            ],
            "stateMutability": "view",
            "type": "function"
        },
        {
            "inputs": [
                {
                    "internalType": "string",
                    "name": "",
                    "type": "string"
                }
            ],
            "name": "domains",
            "outputs": [
                {
                    "internalType": "address",
                    "name": "",
                    "type": "address"
                }
            ],
            "stateMutability": "view",
            "type": "function"
        },
        {
            "inputs": [
                {
                    "internalType": "string",
                    "name": "name",
                    "type": "string"
                }
            ],
            "name": "getAddress",
            "outputs": [
                {
                    "internalType": "address",
                    "name": "",
                    "type": "address"
                }
            ],
            "stateMutability": "view",
            "type": "function"
        },
        {
            "inputs": [],
            "name": "getAllNames",
            "outputs": [
                {
                    "internalType": "string[]",
                    "name": "",
                    "type": "string[]"
                }
            ],
            "stateMutability": "view",
            "type": "function"
        },
        {
            "inputs": [
                {
                    "internalType": "uint256",
                    "name": "tokenId",
                    "type": "uint256"
                }
            ],
            "name": "getApproved",
            "outputs": [
                {
                    "internalType": "address",
                    "name": "",
                    "type": "address"
                }
            ],
            "stateMutability": "view",
            "type": "function"
        },
        {
            "inputs": [
                {
                    "internalType": "string",
                    "name": "name",
                    "type": "string"
                }
            ],
            "name": "getRecord",
            "outputs": [
                {
                    "internalType": "string",
                    "name": "",
                    "type": "string"
                }
            ],
            "stateMutability": "view",
            "type": "function"
        },
        {
            "inputs": [
                {
                    "internalType": "address",
                    "name": "owner",
                    "type": "address"
                },
                {
                    "internalType": "address",
                    "name": "operator",
                    "type": "address"
                }
            ],
            "name": "isApprovedForAll",
            "outputs": [
                {
                    "internalType": "bool",
                    "name": "",
                    "type": "bool"
                }
            ],
            "stateMutability": "view",
            "type": "function"
        },
        {
            "inputs": [],
            "name": "isOwner",
            "outputs": [
                {
                    "internalType": "bool",
                    "name": "",
                    "type": "bool"
                }
            ],
            "stateMutability": "view",
            "type": "function"
        },
        {
            "inputs": [],
            "name": "name",
            "outputs": [
                {
                    "internalType": "string",
                    "name": "",
                    "type": "string"
                }
            ],
            "stateMutability": "view",
            "type": "function"
        },
        {
            "inputs": [
                {
                    "internalType": "uint256",
                    "name": "",
                    "type": "uint256"
                }
            ],
            "name": "names",
            "outputs": [
                {
                    "internalType": "string",
                    "name": "",
                    "type": "string"
                }
            ],
            "stateMutability": "view",
            "type": "function"
        },
        {
            "inputs": [],
            "name": "owner",
            "outputs": [
                {
                    "internalType": "address payable",
                    "name": "",
                    "type": "address"
                }
            ],
            "stateMutability": "view",
            "type": "function"
        },
        {
            "inputs": [
                {
                    "internalType": "uint256",
                    "name": "tokenId",
                    "type": "uint256"
                }
            ],
            "name": "ownerOf",
            "outputs": [
                {
                    "internalType": "address",
                    "name": "",
                    "type": "address"
                }
            ],
            "stateMutability": "view",
            "type": "function"
        },
        {
            "inputs": [
                {
                    "internalType": "string",
                    "name": "name",
                    "type": "string"
                }
            ],
            "name": "price",
            "outputs": [
                {
                    "internalType": "uint256",
                    "name": "",
                    "type": "uint256"
                }
            ],
            "stateMutability": "pure",
            "type": "function"
        },
        {
            "inputs": [
                {
                    "internalType": "string",
                    "name": "",
                    "type": "string"
                }
            ],
            "name": "records",
            "outputs": [
                {
                    "internalType": "string",
                    "name": "",
                    "type": "string"
                }
            ],
            "stateMutability": "view",
            "type": "function"
        },
        {
            "inputs": [
                {
                    "internalType": "string",
                    "name": "name",
                    "type": "string"
                }
            ],
            "name": "register",
            "outputs": [],
            "stateMutability": "payable",
            "type": "function"
        },
        {
            "inputs": [
                {
                    "internalType": "address",
                    "name": "from",
                    "type": "address"
                },
                {
                    "internalType": "address",
                    "name": "to",
                    "type": "address"
                },
                {
                    "internalType": "uint256",
                    "name": "tokenId",
                    "type": "uint256"
                }
            ],
            "name": "safeTransferFrom",
            "outputs": [],
            "stateMutability": "nonpayable",
            "type": "function"
        },
        {
            "inputs": [
                {
                    "internalType": "address",
                    "name": "from",
                    "type": "address"
                },
                {
                    "internalType": "address",
                    "name": "to",
                    "type": "address"
                },
                {
                    "internalType": "uint256",
                    "name": "tokenId",
                    "type": "uint256"
                },
                {
                    "internalType": "bytes",
                    "name": "data",
                    "type": "bytes"
                }
            ],
            "name": "safeTransferFrom",
            "outputs": [],
            "stateMutability": "nonpayable",
            "type": "function"
        },
        {
            "inputs": [
                {
                    "internalType": "address",
                    "name": "operator",
                    "type": "address"
                },
                {
                    "internalType": "bool",
                    "name": "approved",
                    "type": "bool"
                }
            ],
            "name": "setApprovalForAll",
            "outputs": [],
            "stateMutability": "nonpayable",
            "type": "function"
        },
        {
            "inputs": [
                {
                    "internalType": "string",
                    "name": "name",
                    "type": "string"
                },
                {
                    "internalType": "string",
                    "name": "record",
                    "type": "string"
                }
            ],
            "name": "setRecord",
            "outputs": [],
            "stateMutability": "nonpayable",
            "type": "function"
        },
        {
            "inputs": [
                {
                    "internalType": "bytes4",
                    "name": "interfaceId",
                    "type": "bytes4"
                }
            ],
            "name": "supportsInterface",
            "outputs": [
                {
                    "internalType": "bool",
                    "name": "",
                    "type": "bool"
                }
            ],
            "stateMutability": "view",
            "type": "function"
        },
        {
            "inputs": [],
            "name": "symbol",
            "outputs": [
                {
                    "internalType": "string",
                    "name": "",
                    "type": "string"
                }
            ],
            "stateMutability": "view",
            "type": "function"
        },
        {
            "inputs": [],
            "name": "tld",
            "outputs": [
                {
                    "internalType": "string",
                    "name": "",
                    "type": "string"
                }
            ],
            "stateMutability": "view",
            "type": "function"
        },
        {
            "inputs": [
                {
                    "internalType": "uint256",
                    "name": "tokenId",
                    "type": "uint256"
                }
            ],
            "name": "tokenURI",
            "outputs": [
                {
                    "internalType": "string",
                    "name": "",
                    "type": "string"
                }
            ],
            "stateMutability": "view",
            "type": "function"
        },
        {
            "inputs": [
                {
                    "internalType": "address",
                    "name": "from",
                    "type": "address"
                },
                {
                    "internalType": "address",
                    "name": "to",
                    "type": "address"
                },
                {
                    "internalType": "uint256",
                    "name": "tokenId",
                    "type": "uint256"
                }
            ],
            "name": "transferFrom",
            "outputs": [],
            "stateMutability": "nonpayable",
            "type": "function"
        },
        {
            "inputs": [],
            "name": "withdraw",
            "outputs": [],
            "stateMutability": "nonpayable",
            "type": "function"
        }
    ],
    "bytecode": "0x6080604052604051806108a0016040528061086b81526020016200532c61086b9139600990816200003191906200051f565b506040518060400160405280600d81526020017f3c2f746578743e3c2f7376673e00000000000000000000000000000000000000815250600a90816200007891906200051f565b5060405162005b9738038062005b9783398181016040528101906200009e91906200076a565b6040518060400160405280601581526020017f4761746f4c696665204e616d65205365727669636500000000000000000000008152506040518060400160405280600381526020017f474e53000000000000000000000000000000000000000000000000000000000081525081600090816200011b91906200051f565b5080600190816200012d91906200051f565b50505033600b60006101000a81548173ffffffffffffffffffffffffffffffffffffffff021916908373ffffffffffffffffffffffffffffffffffffffff16021790555080600890816200018291906200051f565b50620001cf6040518060400160405280601881526020017f2573206e616d652073657276696365206465706c6f796564000000000000000081525082620001d660201b6200196b1760201c565b5062000848565b620002788282604051602401620001ef9291906200080d565b6040516020818303038152906040527f4b5c4277000000000000000000000000000000000000000000000000000000007bffffffffffffffffffffffffffffffffffffffffffffffffffffffff19166020820180517bffffffffffffffffffffffffffffffffffffffffffffffffffffffff83818316178352505050506200027c60201b60201c565b5050565b60008151905060006a636f6e736f6c652e6c6f679050602083016000808483855afa5050505050565b600081519050919050565b7f4e487b7100000000000000000000000000000000000000000000000000000000600052604160045260246000fd5b7f4e487b7100000000000000000000000000000000000000000000000000000000600052602260045260246000fd5b600060028204905060018216806200032757607f821691505b6020821081036200033d576200033c620002df565b5b50919050565b60008190508160005260206000209050919050565b60006020601f8301049050919050565b600082821b905092915050565b600060088302620003a77fffffffffffffffffffffffffffffffffffffffffffffffffffffffffffffffff8262000368565b620003b3868362000368565b95508019841693508086168417925050509392505050565b6000819050919050565b6000819050919050565b600062000400620003fa620003f484620003cb565b620003d5565b620003cb565b9050919050565b6000819050919050565b6200041c83620003df565b620004346200042b8262000407565b84845462000375565b825550505050565b600090565b6200044b6200043c565b6200045881848462000411565b505050565b5b8181101562000480576200047460008262000441565b6001810190506200045e565b5050565b601f821115620004cf57620004998162000343565b620004a48462000358565b81016020851015620004b4578190505b620004cc620004c38562000358565b8301826200045d565b50505b505050565b600082821c905092915050565b6000620004f460001984600802620004d4565b1980831691505092915050565b60006200050f8383620004e1565b9150826002028217905092915050565b6200052a82620002a5565b67ffffffffffffffff811115620005465762000545620002b0565b5b6200055282546200030e565b6200055f82828562000484565b600060209050601f83116001811462000597576000841562000582578287015190505b6200058e858262000501565b865550620005fe565b601f198416620005a78662000343565b60005b82811015620005d157848901518255600182019150602085019450602081019050620005aa565b86831015620005f15784890151620005ed601f891682620004e1565b8355505b6001600288020188555050505b505050505050565b6000604051905090565b600080fd5b600080fd5b600080fd5b600080fd5b6000601f19601f8301169050919050565b620006408262000624565b810181811067ffffffffffffffff82111715620006625762000661620002b0565b5b80604052505050565b60006200067762000606565b905062000685828262000635565b919050565b600067ffffffffffffffff821115620006a857620006a7620002b0565b5b620006b38262000624565b9050602081019050919050565b60005b83811015620006e0578082015181840152602081019050620006c3565b60008484015250505050565b600062000703620006fd846200068a565b6200066b565b9050828152602081018484840111156200072257620007216200061f565b5b6200072f848285620006c0565b509392505050565b600082601f8301126200074f576200074e6200061a565b5b815162000761848260208601620006ec565b91505092915050565b60006020828403121562000783576200078262000610565b5b600082015167ffffffffffffffff811115620007a457620007a362000615565b5b620007b28482850162000737565b91505092915050565b600082825260208201905092915050565b6000620007d982620002a5565b620007e58185620007bb565b9350620007f7818560208601620006c0565b620008028162000624565b840191505092915050565b60006040820190508181036000830152620008298185620007cc565b905081810360208301526200083f8184620007cc565b90509392505050565b614ad480620008586000396000f3fe6080604052600436106101815760003560e01c806370a08231116100d1578063bf40fac11161008a578063e985e9c511610064578063e985e9c5146105cc578063f2c298be14610609578063fb825e5f14610625578063fe2c61981461065057610181565b8063bf40fac114610529578063c1880a9814610566578063c87b56dd1461058f57610181565b806370a08231146104195780638da5cb5b146104565780638f32d59b1461048157806395d89b41146104ac578063a22cb465146104d7578063b88d4fde1461050057610181565b8063264492351161013e57806342842e0e1161011857806342842e0e146103395780634622ab0314610362578063541e771d1461039f5780636352211e146103dc57610181565b806326449235146102ba5780632d551432146102f75780633ccfd60b1461032257610181565b806301ffc9a71461018657806306fdde03146101c3578063081812fc146101ee578063095ea7b31461022b57806311dd88451461025457806323b872dd14610291575b600080fd5b34801561019257600080fd5b506101ad60048036038101906101a89190612e89565b61068d565b6040516101ba9190612ed1565b60405180910390f35b3480156101cf57600080fd5b506101d861076f565b6040516101e59190612f7c565b60405180910390f35b3480156101fa57600080fd5b5061021560048036038101906102109190612fd4565b610801565b6040516102229190613042565b60405180910390f35b34801561023757600080fd5b50610252600480360381019061024d9190613089565b610847565b005b34801561026057600080fd5b5061027b6004803603810190610276919061312e565b61095e565b6040516102889190612f7c565b60405180910390f35b34801561029d57600080fd5b506102b860048036038101906102b3919061317b565b610a11565b005b3480156102c657600080fd5b506102e160048036038101906102dc91906132fe565b610a71565b6040516102ee9190613042565b60405180910390f35b34801561030357600080fd5b5061030c610aba565b6040516103199190612f7c565b60405180910390f35b34801561032e57600080fd5b50610337610b48565b005b34801561034557600080fd5b50610360600480360381019061035b919061317b565b610c0e565b005b34801561036e57600080fd5b5061038960048036038101906103849190612fd4565b610c2e565b6040516103969190612f7c565b60405180910390f35b3480156103ab57600080fd5b506103c660048036038101906103c191906132fe565b610cce565b6040516103d39190612f7c565b60405180910390f35b3480156103e857600080fd5b5061040360048036038101906103fe9190612fd4565b610d84565b6040516104109190613042565b60405180910390f35b34801561042557600080fd5b50610440600480360381019061043b9190613347565b610e0a565b60405161044d9190613383565b60405180910390f35b34801561046257600080fd5b5061046b610ec1565b60405161047891906133bf565b60405180910390f35b34801561048d57600080fd5b50610496610ee7565b6040516104a39190612ed1565b60405180910390f35b3480156104b857600080fd5b506104c1610f3f565b6040516104ce9190612f7c565b60405180910390f35b3480156104e357600080fd5b506104fe60048036038101906104f99190613406565b610fd1565b005b34801561050c57600080fd5b50610527600480360381019061052291906134e7565b610fe7565b005b34801561053557600080fd5b50610550600480360381019061054b919061312e565b611049565b60405161055d9190613042565b60405180910390f35b34801561057257600080fd5b5061058d6004803603810190610588919061356a565b611094565b005b34801561059b57600080fd5b506105b660048036038101906105b19190612fd4565b611142565b6040516105c39190612f7c565b60405180910390f35b3480156105d857600080fd5b506105f360048036038101906105ee91906135eb565b611254565b6040516106009190612ed1565b60405180910390f35b610623600480360381019061061e919061312e565b6112e8565b005b34801561063157600080fd5b5061063a6116ec565b6040516106479190613737565b60405180910390f35b34801561065c57600080fd5b506106776004803603810190610672919061312e565b6118ca565b6040516106849190613383565b60405180910390f35b60007f80ac58cd000000000000000000000000000000000000000000000000000000007bffffffffffffffffffffffffffffffffffffffffffffffffffffffff1916827bffffffffffffffffffffffffffffffffffffffffffffffffffffffff1916148061075857507f5b5e139f000000000000000000000000000000000000000000000000000000007bffffffffffffffffffffffffffffffffffffffffffffffffffffffff1916827bffffffffffffffffffffffffffffffffffffffffffffffffffffffff1916145b80610768575061076782611a07565b5b9050919050565b60606000805461077e90613788565b80601f01602080910402602001604051908101604052809291908181526020018280546107aa90613788565b80156107f75780601f106107cc576101008083540402835291602001916107f7565b820191906000526020600020905b8154815290600101906020018083116107da57829003601f168201915b5050505050905090565b600061080c82611a71565b6004600083815260200190815260200160002060009054906101000a900473ffffffffffffffffffffffffffffffffffffffff169050919050565b600061085282610d84565b90508073ffffffffffffffffffffffffffffffffffffffff168373ffffffffffffffffffffffffffffffffffffffff16036108c2576040517f08c379a00000000000000000000000000000000000000000000000000000000081526004016108b99061382b565b60405180910390fd5b8073ffffffffffffffffffffffffffffffffffffffff166108e1611abc565b73ffffffffffffffffffffffffffffffffffffffff161480610910575061090f8161090a611abc565b611254565b5b61094f576040517f08c379a0000000000000000000000000000000000000000000000000000000008152600401610946906138bd565b60405180910390fd5b6109598383611ac4565b505050565b6060600e838360405161097292919061390d565b9081526020016040518091039020805461098b90613788565b80601f01602080910402602001604051908101604052809291908181526020018280546109b790613788565b8015610a045780601f106109d957610100808354040283529160200191610a04565b820191906000526020600020905b8154815290600101906020018083116109e757829003601f168201915b5050505050905092915050565b610a22610a1c611abc565b82611b7d565b610a61576040517f08c379a0000000000000000000000000000000000000000000000000000000008152600401610a5890613998565b60405180910390fd5b610a6c838383611c12565b505050565b600d818051602081018201805184825260208301602085012081835280955050505050506000915054906101000a900473ffffffffffffffffffffffffffffffffffffffff1681565b60088054610ac790613788565b80601f0160208091040260200160405190810160405280929190818152602001828054610af390613788565b8015610b405780601f10610b1557610100808354040283529160200191610b40565b820191906000526020600020905b815481529060010190602001808311610b2357829003601f168201915b505050505081565b610b50610ee7565b610b5957600080fd5b600047905060003373ffffffffffffffffffffffffffffffffffffffff1682604051610b84906139e9565b60006040518083038185875af1925050503d8060008114610bc1576040519150601f19603f3d011682016040523d82523d6000602084013e610bc6565b606091505b5050905080610c0a576040517f08c379a0000000000000000000000000000000000000000000000000000000008152600401610c0190613a4a565b60405180910390fd5b5050565b610c2983838360405180602001604052806000815250610fe7565b505050565b600c6020528060005260406000206000915090508054610c4d90613788565b80601f0160208091040260200160405190810160405280929190818152602001828054610c7990613788565b8015610cc65780601f10610c9b57610100808354040283529160200191610cc6565b820191906000526020600020905b815481529060010190602001808311610ca957829003601f168201915b505050505081565b600e818051602081018201805184825260208301602085012081835280955050505050506000915090508054610d0390613788565b80601f0160208091040260200160405190810160405280929190818152602001828054610d2f90613788565b8015610d7c5780601f10610d5157610100808354040283529160200191610d7c565b820191906000526020600020905b815481529060010190602001808311610d5f57829003601f168201915b505050505081565b600080610d9083611f0b565b9050600073ffffffffffffffffffffffffffffffffffffffff168173ffffffffffffffffffffffffffffffffffffffff1603610e01576040517f08c379a0000000000000000000000000000000000000000000000000000000008152600401610df890613ab6565b60405180910390fd5b80915050919050565b60008073ffffffffffffffffffffffffffffffffffffffff168273ffffffffffffffffffffffffffffffffffffffff1603610e7a576040517f08c379a0000000000000000000000000000000000000000000000000000000008152600401610e7190613b48565b60405180910390fd5b600360008373ffffffffffffffffffffffffffffffffffffffff1673ffffffffffffffffffffffffffffffffffffffff168152602001908152602001600020549050919050565b600b60009054906101000a900473ffffffffffffffffffffffffffffffffffffffff1681565b6000600b60009054906101000a900473ffffffffffffffffffffffffffffffffffffffff1673ffffffffffffffffffffffffffffffffffffffff163373ffffffffffffffffffffffffffffffffffffffff1614905090565b606060018054610f4e90613788565b80601f0160208091040260200160405190810160405280929190818152602001828054610f7a90613788565b8015610fc75780601f10610f9c57610100808354040283529160200191610fc7565b820191906000526020600020905b815481529060010190602001808311610faa57829003601f168201915b5050505050905090565b610fe3610fdc611abc565b8383611f48565b5050565b610ff8610ff2611abc565b83611b7d565b611037576040517f08c379a000000000000000000000000000000000000000000000000000000000815260040161102e90613998565b60405180910390fd5b611043848484846120b4565b50505050565b6000600d838360405161105d92919061390d565b908152602001604051809103902060009054906101000a900473ffffffffffffffffffffffffffffffffffffffff16905092915050565b3373ffffffffffffffffffffffffffffffffffffffff16600d85856040516110bd92919061390d565b908152602001604051809103902060009054906101000a900473ffffffffffffffffffffffffffffffffffffffff1673ffffffffffffffffffffffffffffffffffffffff161461110c57600080fd5b8181600e868660405161112092919061390d565b9081526020016040518091039020918261113b929190613d1f565b5050505050565b606061114d82611a71565b600060066000848152602001908152602001600020805461116d90613788565b80601f016020809104026020016040519081016040528092919081815260200182805461119990613788565b80156111e65780601f106111bb576101008083540402835291602001916111e6565b820191906000526020600020905b8154815290600101906020018083116111c957829003601f168201915b5050505050905060006111f7612110565b9050600081510361120c57819250505061124f565b600082511115611241578082604051602001611229929190613e20565b6040516020818303038152906040529250505061124f565b61124a84612127565b925050505b919050565b6000600560008473ffffffffffffffffffffffffffffffffffffffff1673ffffffffffffffffffffffffffffffffffffffff16815260200190815260200160002060008373ffffffffffffffffffffffffffffffffffffffff1673ffffffffffffffffffffffffffffffffffffffff16815260200190815260200160002060009054906101000a900460ff16905092915050565b600073ffffffffffffffffffffffffffffffffffffffff16600d838360405161131292919061390d565b908152602001604051809103902060009054906101000a900473ffffffffffffffffffffffffffffffffffffffff1673ffffffffffffffffffffffffffffffffffffffff161461136157600080fd5b600061136d83836118ca565b9050803410156113b2576040517f08c379a00000000000000000000000000000000000000000000000000000000081526004016113a990613e90565b60405180910390fd5b6000838360086040516020016113ca93929190613f7f565b60405160208183030381529060405290506000600982600a6040516020016113f493929190613fb0565b60405160208183030381529060405290506000611411600761218f565b9050600061146287878080601f016020809104026020016040519081016040528093929190818152602001838380828437600081840152601f19601f8201169050808301925050505050505061219d565b9050600061146f82612352565b90506115636040518060600160405280603181526020016149f56031913989898080601f016020809104026020016040519081016040528093929190818152602001838380828437600081840152601f19601f82011690508083019250505050505050600880546114df90613788565b80601f016020809104026020016040519081016040528092919081815260200182805461150b90613788565b80156115585780601f1061152d57610100808354040283529160200191611558565b820191906000526020600020905b81548152906001019060200180831161153b57829003601f168201915b505050505086612420565b600061159986611572876124c2565b846040516020016115859392919061415d565b6040516020818303038152906040526124c2565b90506000816040516020016115ae9190614206565b60405160208183030381529060405290506115e06040518060600160405280603981526020016149bc60399139612659565b61161f6040518060400160405280600e81526020017f46696e616c20746f6b656e5552490000000000000000000000000000000000008152508261196b565b611640604051806060016040528060398152602001614a2660399139612659565b61164a33866126f2565b6116548582612710565b33600d8b8b60405161166792919061390d565b908152602001604051809103902060006101000a81548173ffffffffffffffffffffffffffffffffffffffff021916908373ffffffffffffffffffffffffffffffffffffffff1602179055508989600c600088815260200190815260200160002091826116d5929190613d1f565b506116e0600761277d565b50505050505050505050565b606061172c6040518060400160405280601f81526020017f47657474696e6720616c6c206e616d65732066726f6d20636f6e747261637400815250612659565b6000611738600761218f565b67ffffffffffffffff811115611751576117506131d3565b5b60405190808252806020026020018201604052801561178457816020015b606081526020019060019003908161176f5790505b50905060005b611794600761218f565b8110156118c257600c600082815260200190815260200160002080546117b990613788565b80601f01602080910402602001604051908101604052809291908181526020018280546117e590613788565b80156118325780601f1061180757610100808354040283529160200191611832565b820191906000526020600020905b81548152906001019060200180831161181557829003601f168201915b505050505082828151811061184a57611849614228565b5b60200260200101819052506118af6040518060400160405280601781526020017f4e616d6520666f7220746f6b656e202564206973202573000000000000000000815250828484815181106118a2576118a1614228565b5b6020026020010151612793565b80806118ba90614286565b91505061178a565b508091505090565b60008061191a84848080601f016020809104026020016040519081016040528093929190818152602001838380828437600081840152601f19601f8201169050808301925050505050505061219d565b90506000811161192957600080fd5b60038103611941576611c37937e08000915050611965565b6004810361195957660aa87bee538000915050611965565b66038d7ea4c680009150505b92915050565b611a0382826040516024016119819291906142ce565b6040516020818303038152906040527f4b5c4277000000000000000000000000000000000000000000000000000000007bffffffffffffffffffffffffffffffffffffffffffffffffffffffff19166020820180517bffffffffffffffffffffffffffffffffffffffffffffffffffffffff8381831617835250505050612832565b5050565b60007f01ffc9a7000000000000000000000000000000000000000000000000000000007bffffffffffffffffffffffffffffffffffffffffffffffffffffffff1916827bffffffffffffffffffffffffffffffffffffffffffffffffffffffff1916149050919050565b611a7a8161285b565b611ab9576040517f08c379a0000000000000000000000000000000000000000000000000000000008152600401611ab090613ab6565b60405180910390fd5b50565b600033905090565b816004600083815260200190815260200160002060006101000a81548173ffffffffffffffffffffffffffffffffffffffff021916908373ffffffffffffffffffffffffffffffffffffffff160217905550808273ffffffffffffffffffffffffffffffffffffffff16611b3783610d84565b73ffffffffffffffffffffffffffffffffffffffff167f8c5be1e5ebec7d5bd14f71427d1e84f3dd0314c0f7b2291e5b200ac8c7c3b92560405160405180910390a45050565b600080611b8983610d84565b90508073ffffffffffffffffffffffffffffffffffffffff168473ffffffffffffffffffffffffffffffffffffffff161480611bcb5750611bca8185611254565b5b80611c0957508373ffffffffffffffffffffffffffffffffffffffff16611bf184610801565b73ffffffffffffffffffffffffffffffffffffffff16145b91505092915050565b8273ffffffffffffffffffffffffffffffffffffffff16611c3282610d84565b73ffffffffffffffffffffffffffffffffffffffff1614611c88576040517f08c379a0000000000000000000000000000000000000000000000000000000008152600401611c7f90614377565b60405180910390fd5b600073ffffffffffffffffffffffffffffffffffffffff168273ffffffffffffffffffffffffffffffffffffffff1603611cf7576040517f08c379a0000000000000000000000000000000000000000000000000000000008152600401611cee90614409565b60405180910390fd5b611d04838383600161289c565b8273ffffffffffffffffffffffffffffffffffffffff16611d2482610d84565b73ffffffffffffffffffffffffffffffffffffffff1614611d7a576040517f08c379a0000000000000000000000000000000000000000000000000000000008152600401611d7190614377565b60405180910390fd5b6004600082815260200190815260200160002060006101000a81549073ffffffffffffffffffffffffffffffffffffffff02191690556001600360008573ffffffffffffffffffffffffffffffffffffffff1673ffffffffffffffffffffffffffffffffffffffff168152602001908152602001600020600082825403925050819055506001600360008473ffffffffffffffffffffffffffffffffffffffff1673ffffffffffffffffffffffffffffffffffffffff16815260200190815260200160002060008282540192505081905550816002600083815260200190815260200160002060006101000a81548173ffffffffffffffffffffffffffffffffffffffff021916908373ffffffffffffffffffffffffffffffffffffffff160217905550808273ffffffffffffffffffffffffffffffffffffffff168473ffffffffffffffffffffffffffffffffffffffff167fddf252ad1be2c89b69c2b068fc378daa952ba7f163c4a11628f55a4df523b3ef60405160405180910390a4611f0683838360016128a2565b505050565b60006002600083815260200190815260200160002060009054906101000a900473ffffffffffffffffffffffffffffffffffffffff169050919050565b8173ffffffffffffffffffffffffffffffffffffffff168373ffffffffffffffffffffffffffffffffffffffff1603611fb6576040517f08c379a0000000000000000000000000000000000000000000000000000000008152600401611fad90614475565b60405180910390fd5b80600560008573ffffffffffffffffffffffffffffffffffffffff1673ffffffffffffffffffffffffffffffffffffffff16815260200190815260200160002060008473ffffffffffffffffffffffffffffffffffffffff1673ffffffffffffffffffffffffffffffffffffffff16815260200190815260200160002060006101000a81548160ff0219169083151502179055508173ffffffffffffffffffffffffffffffffffffffff168373ffffffffffffffffffffffffffffffffffffffff167f17307eab39ab6107e8899845ad3d59bd9653f200f220920489ca2b5937696c31836040516120a79190612ed1565b60405180910390a3505050565b6120bf848484611c12565b6120cb848484846128a8565b61210a576040517f08c379a000000000000000000000000000000000000000000000000000000000815260040161210190614507565b60405180910390fd5b50505050565b606060405180602001604052806000815250905090565b606061213282611a71565b600061213c612110565b9050600081511161215c5760405180602001604052806000815250612187565b8061216684612352565b604051602001612177929190613e20565b6040516020818303038152906040525b915050919050565b600081600001549050919050565b60008060008084519050600092505b808210156123475760008583815181106121c9576121c8614228565b5b602001015160f81c60f81b9050608060f81b817effffffffffffffffffffffffffffffffffffffffffffffffffffffffffffff19161015612218576001836122119190614527565b9250612333565b60e060f81b817effffffffffffffffffffffffffffffffffffffffffffffffffffffffffffff1916101561225a576002836122539190614527565b9250612332565b60f060f81b817effffffffffffffffffffffffffffffffffffffffffffffffffffffffffffff1916101561229c576003836122959190614527565b9250612331565b60f8801b817effffffffffffffffffffffffffffffffffffffffffffffffffffffffffffff191610156122dd576004836122d69190614527565b9250612330565b60fc60f81b817effffffffffffffffffffffffffffffffffffffffffffffffffffffffffffff1916101561231f576005836123189190614527565b925061232f565b60068361232c9190614527565b92505b5b5b5b5b50828061233f90614286565b9350506121ac565b829350505050919050565b60606000600161236184612a2f565b01905060008167ffffffffffffffff8111156123805761237f6131d3565b5b6040519080825280601f01601f1916602001820160405280156123b25781602001600182028036833780820191505090505b509050600082602001820190505b600115612415578080600190039150507f3031323334353637383961626364656600000000000000000000000000000000600a86061a8153600a85816124095761240861455b565b5b049450600085036123c0575b819350505050919050565b6124bc8484848460405160240161243a949392919061458a565b6040516020818303038152906040527f8eafb02b000000000000000000000000000000000000000000000000000000007bffffffffffffffffffffffffffffffffffffffffffffffffffffffff19166020820180517bffffffffffffffffffffffffffffffffffffffffffffffffffffffff8381831617835250505050612832565b50505050565b6060600082519050600081036124ea5760405180602001604052806000815250915050612654565b600060036002836124fb9190614527565b61250591906145e4565b60046125119190614615565b905060006020826125229190614527565b67ffffffffffffffff81111561253b5761253a6131d3565b5b6040519080825280601f01601f19166020018201604052801561256d5781602001600182028036833780820191505090505b5090506000604051806060016040528060408152602001614a5f604091399050600181016020830160005b868110156126115760038101905062ffffff818a015116603f8160121c168401518060081b905060ff603f83600c1c1686015116810190508060081b905060ff603f8360061c1686015116810190508060081b905060ff603f831686015116810190508060e01b90508084526004840193505050612598565b50600386066001811461262b576002811461263b57612646565b613d3d60f01b6002830352612646565b603d60f81b60018303525b508484525050819450505050505b919050565b6126ef8160405160240161266d9190612f7c565b6040516020818303038152906040527f41304fac000000000000000000000000000000000000000000000000000000007bffffffffffffffffffffffffffffffffffffffffffffffffffffffff19166020820180517bffffffffffffffffffffffffffffffffffffffffffffffffffffffff8381831617835250505050612832565b50565b61270c828260405180602001604052806000815250612b82565b5050565b6127198261285b565b612758576040517f08c379a000000000000000000000000000000000000000000000000000000000815260040161274f906146c9565b60405180910390fd5b8060066000848152602001908152602001600020908161277891906146e9565b505050565b6001816000016000828254019250508190555050565b61282d8383836040516024016127ab939291906147bb565b6040516020818303038152906040527f5970e089000000000000000000000000000000000000000000000000000000007bffffffffffffffffffffffffffffffffffffffffffffffffffffffff19166020820180517bffffffffffffffffffffffffffffffffffffffffffffffffffffffff8381831617835250505050612832565b505050565b60008151905060006a636f6e736f6c652e6c6f679050602083016000808483855afa5050505050565b60008073ffffffffffffffffffffffffffffffffffffffff1661287d83611f0b565b73ffffffffffffffffffffffffffffffffffffffff1614159050919050565b50505050565b50505050565b60006128c98473ffffffffffffffffffffffffffffffffffffffff16612bdd565b15612a22578373ffffffffffffffffffffffffffffffffffffffff1663150b7a026128f2611abc565b8786866040518563ffffffff1660e01b81526004016129149493929190614855565b6020604051808303816000875af192505050801561295057506040513d601f19601f8201168201806040525081019061294d91906148b6565b60015b6129d2573d8060008114612980576040519150601f19603f3d011682016040523d82523d6000602084013e612985565b606091505b5060008151036129ca576040517f08c379a00000000000000000000000000000000000000000000000000000000081526004016129c190614507565b60405180910390fd5b805181602001fd5b63150b7a0260e01b7bffffffffffffffffffffffffffffffffffffffffffffffffffffffff1916817bffffffffffffffffffffffffffffffffffffffffffffffffffffffff191614915050612a27565b600190505b949350505050565b600080600090507a184f03e93ff9f4daa797ed6e38ed64bf6a1f0100000000000000008310612a8d577a184f03e93ff9f4daa797ed6e38ed64bf6a1f0100000000000000008381612a8357612a8261455b565b5b0492506040810190505b6d04ee2d6d415b85acef81000000008310612aca576d04ee2d6d415b85acef81000000008381612ac057612abf61455b565b5b0492506020810190505b662386f26fc100008310612af957662386f26fc100008381612aef57612aee61455b565b5b0492506010810190505b6305f5e1008310612b22576305f5e1008381612b1857612b1761455b565b5b0492506008810190505b6127108310612b47576127108381612b3d57612b3c61455b565b5b0492506004810190505b60648310612b6a5760648381612b6057612b5f61455b565b5b0492506002810190505b600a8310612b79576001810190505b80915050919050565b612b8c8383612c00565b612b9960008484846128a8565b612bd8576040517f08c379a0000000000000000000000000000000000000000000000000000000008152600401612bcf90614507565b60405180910390fd5b505050565b6000808273ffffffffffffffffffffffffffffffffffffffff163b119050919050565b600073ffffffffffffffffffffffffffffffffffffffff168273ffffffffffffffffffffffffffffffffffffffff1603612c6f576040517f08c379a0000000000000000000000000000000000000000000000000000000008152600401612c669061492f565b60405180910390fd5b612c788161285b565b15612cb8576040517f08c379a0000000000000000000000000000000000000000000000000000000008152600401612caf9061499b565b60405180910390fd5b612cc660008383600161289c565b612ccf8161285b565b15612d0f576040517f08c379a0000000000000000000000000000000000000000000000000000000008152600401612d069061499b565b60405180910390fd5b6001600360008473ffffffffffffffffffffffffffffffffffffffff1673ffffffffffffffffffffffffffffffffffffffff16815260200190815260200160002060008282540192505081905550816002600083815260200190815260200160002060006101000a81548173ffffffffffffffffffffffffffffffffffffffff021916908373ffffffffffffffffffffffffffffffffffffffff160217905550808273ffffffffffffffffffffffffffffffffffffffff16600073ffffffffffffffffffffffffffffffffffffffff167fddf252ad1be2c89b69c2b068fc378daa952ba7f163c4a11628f55a4df523b3ef60405160405180910390a4612e196000838360016128a2565b5050565b6000604051905090565b600080fd5b600080fd5b60007fffffffff0000000000000000000000000000000000000000000000000000000082169050919050565b612e6681612e31565b8114612e7157600080fd5b50565b600081359050612e8381612e5d565b92915050565b600060208284031215612e9f57612e9e612e27565b5b6000612ead84828501612e74565b91505092915050565b60008115159050919050565b612ecb81612eb6565b82525050565b6000602082019050612ee66000830184612ec2565b92915050565b600081519050919050565b600082825260208201905092915050565b60005b83811015612f26578082015181840152602081019050612f0b565b60008484015250505050565b6000601f19601f8301169050919050565b6000612f4e82612eec565b612f588185612ef7565b9350612f68818560208601612f08565b612f7181612f32565b840191505092915050565b60006020820190508181036000830152612f968184612f43565b905092915050565b6000819050919050565b612fb181612f9e565b8114612fbc57600080fd5b50565b600081359050612fce81612fa8565b92915050565b600060208284031215612fea57612fe9612e27565b5b6000612ff884828501612fbf565b91505092915050565b600073ffffffffffffffffffffffffffffffffffffffff82169050919050565b600061302c82613001565b9050919050565b61303c81613021565b82525050565b60006020820190506130576000830184613033565b92915050565b61306681613021565b811461307157600080fd5b50565b6000813590506130838161305d565b92915050565b600080604083850312156130a05761309f612e27565b5b60006130ae85828601613074565b92505060206130bf85828601612fbf565b9150509250929050565b600080fd5b600080fd5b600080fd5b60008083601f8401126130ee576130ed6130c9565b5b8235905067ffffffffffffffff81111561310b5761310a6130ce565b5b602083019150836001820283011115613127576131266130d3565b5b9250929050565b6000806020838503121561314557613144612e27565b5b600083013567ffffffffffffffff81111561316357613162612e2c565b5b61316f858286016130d8565b92509250509250929050565b60008060006060848603121561319457613193612e27565b5b60006131a286828701613074565b93505060206131b386828701613074565b92505060406131c486828701612fbf565b9150509250925092565b600080fd5b7f4e487b7100000000000000000000000000000000000000000000000000000000600052604160045260246000fd5b61320b82612f32565b810181811067ffffffffffffffff8211171561322a576132296131d3565b5b80604052505050565b600061323d612e1d565b90506132498282613202565b919050565b600067ffffffffffffffff821115613269576132686131d3565b5b61327282612f32565b9050602081019050919050565b82818337600083830152505050565b60006132a161329c8461324e565b613233565b9050828152602081018484840111156132bd576132bc6131ce565b5b6132c884828561327f565b509392505050565b600082601f8301126132e5576132e46130c9565b5b81356132f584826020860161328e565b91505092915050565b60006020828403121561331457613313612e27565b5b600082013567ffffffffffffffff81111561333257613331612e2c565b5b61333e848285016132d0565b91505092915050565b60006020828403121561335d5761335c612e27565b5b600061336b84828501613074565b91505092915050565b61337d81612f9e565b82525050565b60006020820190506133986000830184613374565b92915050565b60006133a982613001565b9050919050565b6133b98161339e565b82525050565b60006020820190506133d460008301846133b0565b92915050565b6133e381612eb6565b81146133ee57600080fd5b50565b600081359050613400816133da565b92915050565b6000806040838503121561341d5761341c612e27565b5b600061342b85828601613074565b925050602061343c858286016133f1565b9150509250929050565b600067ffffffffffffffff821115613461576134606131d3565b5b61346a82612f32565b9050602081019050919050565b600061348a61348584613446565b613233565b9050828152602081018484840111156134a6576134a56131ce565b5b6134b184828561327f565b509392505050565b600082601f8301126134ce576134cd6130c9565b5b81356134de848260208601613477565b91505092915050565b6000806000806080858703121561350157613500612e27565b5b600061350f87828801613074565b945050602061352087828801613074565b935050604061353187828801612fbf565b925050606085013567ffffffffffffffff81111561355257613551612e2c565b5b61355e878288016134b9565b91505092959194509250565b6000806000806040858703121561358457613583612e27565b5b600085013567ffffffffffffffff8111156135a2576135a1612e2c565b5b6135ae878288016130d8565b9450945050602085013567ffffffffffffffff8111156135d1576135d0612e2c565b5b6135dd878288016130d8565b925092505092959194509250565b6000806040838503121561360257613601612e27565b5b600061361085828601613074565b925050602061362185828601613074565b9150509250929050565b600081519050919050565b600082825260208201905092915050565b6000819050602082019050919050565b600082825260208201905092915050565b600061367382612eec565b61367d8185613657565b935061368d818560208601612f08565b61369681612f32565b840191505092915050565b60006136ad8383613668565b905092915050565b6000602082019050919050565b60006136cd8261362b565b6136d78185613636565b9350836020820285016136e985613647565b8060005b85811015613725578484038952815161370685826136a1565b9450613711836136b5565b925060208a019950506001810190506136ed565b50829750879550505050505092915050565b6000602082019050818103600083015261375181846136c2565b905092915050565b7f4e487b7100000000000000000000000000000000000000000000000000000000600052602260045260246000fd5b600060028204905060018216806137a057607f821691505b6020821081036137b3576137b2613759565b5b50919050565b7f4552433732313a20617070726f76616c20746f2063757272656e74206f776e6560008201527f7200000000000000000000000000000000000000000000000000000000000000602082015250565b6000613815602183612ef7565b9150613820826137b9565b604082019050919050565b6000602082019050818103600083015261384481613808565b9050919050565b7f4552433732313a20617070726f76652063616c6c6572206973206e6f7420746f60008201527f6b656e206f776e6572206f7220617070726f76656420666f7220616c6c000000602082015250565b60006138a7603d83612ef7565b91506138b28261384b565b604082019050919050565b600060208201905081810360008301526138d68161389a565b9050919050565b600081905092915050565b60006138f483856138dd565b935061390183858461327f565b82840190509392505050565b600061391a8284866138e8565b91508190509392505050565b7f4552433732313a2063616c6c6572206973206e6f7420746f6b656e206f776e6560008201527f72206f7220617070726f76656400000000000000000000000000000000000000602082015250565b6000613982602d83612ef7565b915061398d82613926565b604082019050919050565b600060208201905081810360008301526139b181613975565b9050919050565b600081905092915050565b50565b60006139d36000836139b8565b91506139de826139c3565b600082019050919050565b60006139f4826139c6565b9150819050919050565b7f4661696c656420746f207769746864726177204d617469630000000000000000600082015250565b6000613a34601883612ef7565b9150613a3f826139fe565b602082019050919050565b60006020820190508181036000830152613a6381613a27565b9050919050565b7f4552433732313a20696e76616c696420746f6b656e2049440000000000000000600082015250565b6000613aa0601883612ef7565b9150613aab82613a6a565b602082019050919050565b60006020820190508181036000830152613acf81613a93565b9050919050565b7f4552433732313a2061646472657373207a65726f206973206e6f74206120766160008201527f6c6964206f776e65720000000000000000000000000000000000000000000000602082015250565b6000613b32602983612ef7565b9150613b3d82613ad6565b604082019050919050565b60006020820190508181036000830152613b6181613b25565b9050919050565b600082905092915050565b60008190508160005260206000209050919050565b60006020601f8301049050919050565b600082821b905092915050565b600060088302613bd57fffffffffffffffffffffffffffffffffffffffffffffffffffffffffffffffff82613b98565b613bdf8683613b98565b95508019841693508086168417925050509392505050565b6000819050919050565b6000613c1c613c17613c1284612f9e565b613bf7565b612f9e565b9050919050565b6000819050919050565b613c3683613c01565b613c4a613c4282613c23565b848454613ba5565b825550505050565b600090565b613c5f613c52565b613c6a818484613c2d565b505050565b5b81811015613c8e57613c83600082613c57565b600181019050613c70565b5050565b601f821115613cd357613ca481613b73565b613cad84613b88565b81016020851015613cbc578190505b613cd0613cc885613b88565b830182613c6f565b50505b505050565b600082821c905092915050565b6000613cf660001984600802613cd8565b1980831691505092915050565b6000613d0f8383613ce5565b9150826002028217905092915050565b613d298383613b68565b67ffffffffffffffff811115613d4257613d416131d3565b5b613d4c8254613788565b613d57828285613c92565b6000601f831160018114613d865760008415613d74578287013590505b613d7e8582613d03565b865550613de6565b601f198416613d9486613b73565b60005b82811015613dbc57848901358255600182019150602085019450602081019050613d97565b86831015613dd95784890135613dd5601f891682613ce5565b8355505b6001600288020188555050505b50505050505050565b6000613dfa82612eec565b613e0481856138dd565b9350613e14818560208601612f08565b80840191505092915050565b6000613e2c8285613def565b9150613e388284613def565b91508190509392505050565b7f4e6f7420656e6f756768204d6174696320706169640000000000000000000000600082015250565b6000613e7a601583612ef7565b9150613e8582613e44565b602082019050919050565b60006020820190508181036000830152613ea981613e6d565b9050919050565b7f2e00000000000000000000000000000000000000000000000000000000000000600082015250565b6000613ee66001836138dd565b9150613ef182613eb0565b600182019050919050565b60008154613f0981613788565b613f1381866138dd565b94506001821660008114613f2e5760018114613f4357613f76565b60ff1983168652811515820286019350613f76565b613f4c85613b73565b60005b83811015613f6e57815481890152600182019150602081019050613f4f565b838801955050505b50505092915050565b6000613f8c8285876138e8565b9150613f9782613ed9565b9150613fa38284613efc565b9150819050949350505050565b6000613fbc8286613efc565b9150613fc88285613def565b9150613fd48284613efc565b9150819050949350505050565b7f7b226e616d65223a202200000000000000000000000000000000000000000000600082015250565b6000614017600a836138dd565b915061402282613fe1565b600a82019050919050565b7f222c20226465736372697074696f6e223a20224120646f6d61696e206f6e207460008201527f6865204e696e6a61206e616d652073657276696365222c2022696d616765223a60208201527f2022646174613a696d6167652f7376672b786d6c3b6261736536342c00000000604082015250565b60006140af605c836138dd565b91506140ba8261402d565b605c82019050919050565b7f222c226c656e677468223a220000000000000000000000000000000000000000600082015250565b60006140fb600c836138dd565b9150614106826140c5565b600c82019050919050565b7f227d000000000000000000000000000000000000000000000000000000000000600082015250565b60006141476002836138dd565b915061415282614111565b600282019050919050565b60006141688261400a565b91506141748286613def565b915061417f826140a2565b915061418b8285613def565b9150614196826140ee565b91506141a28284613def565b91506141ad8261413a565b9150819050949350505050565b7f646174613a6170706c69636174696f6e2f6a736f6e3b6261736536342c000000600082015250565b60006141f0601d836138dd565b91506141fb826141ba565b601d82019050919050565b6000614211826141e3565b915061421d8284613def565b915081905092915050565b7f4e487b7100000000000000000000000000000000000000000000000000000000600052603260045260246000fd5b7f4e487b7100000000000000000000000000000000000000000000000000000000600052601160045260246000fd5b600061429182612f9e565b91507fffffffffffffffffffffffffffffffffffffffffffffffffffffffffffffffff82036142c3576142c2614257565b5b600182019050919050565b600060408201905081810360008301526142e88185612f43565b905081810360208301526142fc8184612f43565b90509392505050565b7f4552433732313a207472616e736665722066726f6d20696e636f72726563742060008201527f6f776e6572000000000000000000000000000000000000000000000000000000602082015250565b6000614361602583612ef7565b915061436c82614305565b604082019050919050565b6000602082019050818103600083015261439081614354565b9050919050565b7f4552433732313a207472616e7366657220746f20746865207a65726f2061646460008201527f7265737300000000000000000000000000000000000000000000000000000000602082015250565b60006143f3602483612ef7565b91506143fe82614397565b604082019050919050565b60006020820190508181036000830152614422816143e6565b9050919050565b7f4552433732313a20617070726f766520746f2063616c6c657200000000000000600082015250565b600061445f601983612ef7565b915061446a82614429565b602082019050919050565b6000602082019050818103600083015261448e81614452565b9050919050565b7f4552433732313a207472616e7366657220746f206e6f6e20455243373231526560008201527f63656976657220696d706c656d656e7465720000000000000000000000000000602082015250565b60006144f1603283612ef7565b91506144fc82614495565b604082019050919050565b60006020820190508181036000830152614520816144e4565b9050919050565b600061453282612f9e565b915061453d83612f9e565b925082820190508082111561455557614554614257565b5b92915050565b7f4e487b7100000000000000000000000000000000000000000000000000000000600052601260045260246000fd5b600060808201905081810360008301526145a48187612f43565b905081810360208301526145b88186612f43565b905081810360408301526145cc8185612f43565b90506145db6060830184613374565b95945050505050565b60006145ef82612f9e565b91506145fa83612f9e565b92508261460a5761460961455b565b5b828204905092915050565b600061462082612f9e565b915061462b83612f9e565b925082820261463981612f9e565b915082820484148315176146505761464f614257565b5b5092915050565b7f45524337323155524953746f726167653a2055524920736574206f66206e6f6e60008201527f6578697374656e7420746f6b656e000000000000000000000000000000000000602082015250565b60006146b3602e83612ef7565b91506146be82614657565b604082019050919050565b600060208201905081810360008301526146e2816146a6565b9050919050565b6146f282612eec565b67ffffffffffffffff81111561470b5761470a6131d3565b5b6147158254613788565b614720828285613c92565b600060209050601f8311600181146147535760008415614741578287015190505b61474b8582613d03565b8655506147b3565b601f19841661476186613b73565b60005b8281101561478957848901518255600182019150602085019450602081019050614764565b868310156147a657848901516147a2601f891682613ce5565b8355505b6001600288020188555050505b505050505050565b600060608201905081810360008301526147d58186612f43565b90506147e46020830185613374565b81810360408301526147f68184612f43565b9050949350505050565b600081519050919050565b600082825260208201905092915050565b600061482782614800565b614831818561480b565b9350614841818560208601612f08565b61484a81612f32565b840191505092915050565b600060808201905061486a6000830187613033565b6148776020830186613033565b6148846040830185613374565b8181036060830152614896818461481c565b905095945050505050565b6000815190506148b081612e5d565b92915050565b6000602082840312156148cc576148cb612e27565b5b60006148da848285016148a1565b91505092915050565b7f4552433732313a206d696e7420746f20746865207a65726f2061646472657373600082015250565b6000614919602083612ef7565b9150614924826148e3565b602082019050919050565b600060208201905081810360008301526149488161490c565b9050919050565b7f4552433732313a20746f6b656e20616c7265616479206d696e74656400000000600082015250565b6000614985601c83612ef7565b91506149908261494f565b602082019050919050565b600060208201905081810360008301526149b481614978565b905091905056fe0a2d2d2d2d2d2d2d2d2d2d2d2d2d2d2d2d2d2d2d2d2d2d2d2d2d2d2d2d2d2d2d2d2d2d2d2d2d2d2d2d2d2d2d2d2d2d2d2d2d2d2d2d2d2d2d2d5265676973746572696e672025732e2573206f6e2074686520636f6e7472616374207769746820746f6b656e49442025642d2d2d2d2d2d2d2d2d2d2d2d2d2d2d2d2d2d2d2d2d2d2d2d2d2d2d2d2d2d2d2d2d2d2d2d2d2d2d2d2d2d2d2d2d2d2d2d2d2d2d2d2d2d2d2d0a4142434445464748494a4b4c4d4e4f505152535455565758595a6162636465666768696a6b6c6d6e6f707172737475767778797a303132333435363738392b2fa26469706673582212200ab33311a241c9b83057b684c283a7513cf5dcdf04bced4df5f512f3f865a0aa64736f6c634300081200333c73766720786d6c6e733d22687474703a2f2f7777772e77332e6f72672f323030302f737667222077696474683d2232373022206865696768743d22323730222066696c6c3d226e6f6e65223e3c706174682066696c6c3d2275726c282342292220643d224d302030683237307632373048307a222f3e3c646566733e3c66696c7465722069643d22412220636f6c6f722d696e746572706f6c6174696f6e2d66696c746572733d2273524742222066696c746572556e6974733d227573657253706163654f6e55736522206865696768743d22323730222077696474683d22323730223e3c666544726f70536861646f772064783d2230222064793d22312220737464446576696174696f6e3d22322220666c6f6f642d6f7061636974793d222e323235222077696474683d223230302522206865696768743d2232303025222f3e3c2f66696c7465723e3c2f646566733e3c7061746820643d224d37322e3836332034322e393439632d2e3636382d2e3338372d312e3432362d2e35392d322e3139372d2e3539732d312e3532392e3230342d322e3139372e35396c2d31302e30383120362e3033322d362e383520332e3933342d31302e30383120362e303332632d2e3636382e3338372d312e3432362e35392d322e3139372e3539732d312e3532392d2e3230342d322e3139372d2e35396c2d382e3031332d342e37323161342e353220342e35322030203020312d312e3538392d312e363136632d2e3338342d2e3636352d2e3539342d312e3431382d2e3630382d322e313837762d392e3331632d2e3031332d2e3737352e3138352d312e3533382e3537322d322e32303861342e323520342e323520302030203120312e3632352d312e3539356c372e3838342d342e3539632e3636382d2e33383720312e3432362d2e353920322e3139372d2e353973312e3532392e32303420322e3139372e35396c372e38383420342e353961342e353220342e353220302030203120312e35383920312e363136632e3338342e3636352e35393420312e3431382e36303820322e31383776362e3033326c362e38352d342e303635762d362e303332632e3031332d2e3737352d2e3138352d312e3533382d2e3537322d322e32303861342e323520342e32352030203020302d312e3632352d312e3539354c34312e3435362032342e3539632d2e3636382d2e3338372d312e3432362d2e35392d322e3139372d2e3539732d312e3532392e3230342d322e3139372e35396c2d31342e38363420382e36353561342e323520342e32352030203020302d312e36323520312e353935632d2e3338372e36372d2e35383520312e3433342d2e35373220322e3230387631372e343431632d2e3031332e3737352e31383520312e3533382e35373220322e32303861342e323520342e323520302030203020312e36323520312e3539356c31342e38363420382e363535632e3636382e33383720312e3432362e353920322e3139372e353973312e3532392d2e32303420322e3139372d2e35396c31302e3038312d352e39303120362e38352d342e3036352031302e3038312d352e393031632e3636382d2e33383720312e3432362d2e353920322e3139372d2e353973312e3532392e32303420322e3139372e35396c372e38383420342e353961342e353220342e353220302030203120312e35383920312e363136632e3338342e3636352e35393420312e3431382e36303820322e31383776392e333131632e3031332e3737352d2e31383520312e3533382d2e35373220322e32303861342e323520342e32352030203020312d312e36323520312e3539356c2d372e38383420342e373231632d2e3636382e3338372d312e3432362e35392d322e3139372e3539732d312e3532392d2e3230342d322e3139372d2e35396c2d372e3838342d342e353961342e353220342e35322030203020312d312e3538392d312e363136632d2e3338352d2e3636352d2e3539342d312e3431382d2e3630382d322e313837762d362e3033326c2d362e383520342e30363576362e303332632d2e3031332e3737352e31383520312e3533382e35373220322e32303861342e323520342e323520302030203020312e36323520312e3539356c31342e38363420382e363535632e3636382e33383720312e3432362e353920322e3139372e353973312e3532392d2e32303420322e3139372d2e35396c31342e3836342d382e363535632e3635372d2e33393420312e3230342d2e393520312e3538392d312e363136732e3539342d312e3431382e3630392d322e3138375635352e353338632e3031332d2e3737352d2e3138352d312e3533382d2e3537322d322e32303861342e323520342e32352030203020302d312e3632352d312e3539356c2d31342e3939332d382e3738367a222066696c6c3d2223666666222f3e3c646566733e3c6c696e6561724772616469656e742069643d2242222078313d2230222079313d2230222078323d22323730222079323d2232373022206772616469656e74556e6974733d227573657253706163654f6e557365223e3c73746f702073746f702d636f6c6f723d2223636235656565222f3e3c73746f70206f66667365743d2231222073746f702d636f6c6f723d2223306364376534222073746f702d6f7061636974793d222e3939222f3e3c2f6c696e6561724772616469656e743e3c2f646566733e3c7465787420783d2233322e352220793d223233312220666f6e742d73697a653d223237222066696c6c3d2223666666222066696c7465723d2275726c282341292220666f6e742d66616d696c793d22506c7573204a616b617274612053616e732c44656a6156752053616e732c4e6f746f20436f6c6f7220456d6f6a692c4170706c6520436f6c6f7220456d6f6a692c73616e732d73657269662220666f6e742d7765696768743d22626f6c64223e",
    "linkReferences": {},
    "deployedLinkReferences": {}
}